{
  "abi": [
    {
      "type": "function",
      "name": "acceptApplication",
      "inputs": [
        {
          "name": "_applicant",
          "type": "address",
          "internalType": "address"
        }
      ],
      "outputs": [],
      "stateMutability": "nonpayable"
    },
    {
      "type": "function",
      "name": "applicants",
      "inputs": [
        {
          "name": "",
          "type": "uint256",
          "internalType": "uint256"
        }
      ],
      "outputs": [
        {
          "name": "",
          "type": "address",
          "internalType": "address"
        }
      ],
      "stateMutability": "view"
    },
    {
      "type": "function",
      "name": "applications",
      "inputs": [
        {
          "name": "",
          "type": "address",
          "internalType": "address"
        }
      ],
      "outputs": [
        {
          "name": "applicant",
          "type": "address",
          "internalType": "address"
        },
        {
          "name": "applicant_description",
          "type": "string",
          "internalType": "string"
        },
        {
          "name": "encrypted_budget",
          "type": "string",
          "internalType": "string"
        },
        {
          "name": "budget",
          "type": "uint256",
          "internalType": "uint256"
        },
        {
          "name": "votes",
          "type": "uint256",
          "internalType": "uint256"
        },
        {
          "name": "isAccepted",
          "type": "bool",
          "internalType": "bool"
        }
      ],
      "stateMutability": "view"
    },
    {
      "type": "function",
      "name": "getApplications",
      "inputs": [],
      "outputs": [
        {
          "name": "",
          "type": "tuple[]",
          "internalType": "struct ApplicationSubmission.Application[]",
          "components": [
            {
              "name": "applicant",
              "type": "address",
              "internalType": "address"
            },
            {
              "name": "applicant_description",
              "type": "string",
              "internalType": "string"
            },
            {
              "name": "encrypted_budget",
              "type": "string",
              "internalType": "string"
            },
            {
              "name": "budget",
              "type": "uint256",
              "internalType": "uint256"
            },
            {
              "name": "votes",
              "type": "uint256",
              "internalType": "uint256"
            },
            {
              "name": "isAccepted",
              "type": "bool",
              "internalType": "bool"
            }
          ]
        }
      ],
      "stateMutability": "view"
    },
    {
      "type": "function",
      "name": "proposalAddress",
      "inputs": [],
      "outputs": [
        {
          "name": "",
          "type": "address",
          "internalType": "address"
        }
      ],
      "stateMutability": "view"
    },
    {
      "type": "function",
      "name": "setBudgets",
      "inputs": [
        {
          "name": "budgets",
          "type": "uint256[]",
          "internalType": "uint256[]"
        }
      ],
      "outputs": [],
      "stateMutability": "nonpayable"
    },
    {
      "type": "function",
      "name": "setProposalAddress",
      "inputs": [
        {
          "name": "_proposalAddress",
          "type": "address",
          "internalType": "address"
        }
      ],
      "outputs": [],
      "stateMutability": "nonpayable"
    },
    {
      "type": "function",
      "name": "submitApplication",
      "inputs": [
        {
          "name": "_encrypted_budget",
          "type": "string",
          "internalType": "string"
        },
        {
          "name": "_applicant_description",
          "type": "string",
          "internalType": "string"
        }
      ],
      "outputs": [],
      "stateMutability": "nonpayable"
    },
    {
      "type": "function",
      "name": "voteForApplication",
      "inputs": [
        {
          "name": "applicant",
          "type": "address",
          "internalType": "address"
        },
        {
          "name": "votingPower",
          "type": "uint256",
          "internalType": "uint256"
        }
      ],
      "outputs": [],
      "stateMutability": "nonpayable"
    },
    {
      "type": "event",
      "name": "ApplicationAccepted",
      "inputs": [
        {
          "name": "applicant",
          "type": "address",
          "indexed": true,
          "internalType": "address"
        }
      ],
      "anonymous": false
    },
    {
      "type": "event",
      "name": "ApplicationSubmitted",
      "inputs": [
        {
          "name": "applicant",
          "type": "address",
          "indexed": true,
          "internalType": "address"
        },
        {
          "name": "encrypted_budget",
          "type": "string",
          "indexed": false,
          "internalType": "string"
        }
      ],
      "anonymous": false
    },
    {
      "type": "error",
      "name": "ApplicationAlreadyExists",
      "inputs": []
    },
    {
      "type": "error",
      "name": "ApplicationDoesNotExist",
      "inputs": []
    },
    {
      "type": "error",
      "name": "InvalidPermissions",
      "inputs": []
    },
    {
      "type": "error",
      "name": "InvalidVote",
      "inputs": []
    },
    {
      "type": "error",
      "name": "SubmissionPeriodOver",
      "inputs": []
    }
  ],
  "bytecode": {
    "object": "0x6080604052348015600f57600080fd5b50610f5f8061001f6000396000f3fe608060405234801561001057600080fd5b50600436106100935760003560e01c80637c3bf42d116100665780637c3bf42d146101055780638db980511461012a5780639e394c061461013d578063a678b65b14610150578063d508a6d61461016357600080fd5b806310c3502514610098578063317d934f146100c857806343900e78146100dd57806363de5323146100f2575b600080fd5b6000546100ab906001600160a01b031681565b6040516001600160a01b0390911681526020015b60405180910390f35b6100db6100d63660046109c3565b610176565b005b6100e56101fc565b6040516100bf9190610a33565b6100ab610100366004610af4565b61046e565b610118610113366004610b0d565b610498565b6040516100bf96959493929190610b2f565b6100db610138366004610b0d565b6105ed565b6100db61014b366004610bcd565b610639565b6100db61015e366004610b0d565b610786565b6100db610171366004610cee565b61083b565b6000546001600160a01b031633146101a15760405163932d94f760e01b815260040160405180910390fd5b6001600160a01b038216600090815260016020526040812060038101549091036101de57604051636aee863360e11b815260040160405180910390fd5b818160040160008282546101f29190610d6d565b9091555050505050565b60025460609060009067ffffffffffffffff81111561021d5761021d610b86565b60405190808252806020026020018201604052801561029257816020015b61027f6040518060c0016040528060006001600160a01b03168152602001606081526020016060815260200160008152602001600081526020016000151581525090565b81526020019060019003908161023b5790505b50905060005b6002548110156104685760016000600283815481106102b9576102b9610d86565b60009182526020808320909101546001600160a01b039081168452838201949094526040928301909120825160c08101909352805490931682526001830180549293929184019161030990610d9c565b80601f016020809104026020016040519081016040528092919081815260200182805461033590610d9c565b80156103825780601f1061035757610100808354040283529160200191610382565b820191906000526020600020905b81548152906001019060200180831161036557829003601f168201915b5050505050815260200160028201805461039b90610d9c565b80601f01602080910402602001604051908101604052809291908181526020018280546103c790610d9c565b80156104145780601f106103e957610100808354040283529160200191610414565b820191906000526020600020905b8154815290600101906020018083116103f757829003601f168201915b5050509183525050600382015460208201526004820154604082015260059091015460ff161515606090910152825183908390811061045557610455610d86565b6020908102919091010152600101610298565b50919050565b6002818154811061047e57600080fd5b6000918252602090912001546001600160a01b0316905081565b6001602081905260009182526040909120805491810180546001600160a01b03909316926104c590610d9c565b80601f01602080910402602001604051908101604052809291908181526020018280546104f190610d9c565b801561053e5780601f106105135761010080835404028352916020019161053e565b820191906000526020600020905b81548152906001019060200180831161052157829003601f168201915b50505050509080600201805461055390610d9c565b80601f016020809104026020016040519081016040528092919081815260200182805461057f90610d9c565b80156105cc5780601f106105a1576101008083540402835291602001916105cc565b820191906000526020600020905b8154815290600101906020018083116105af57829003601f168201915b50505050600383015460048401546005909401549293909290915060ff1686565b6000546001600160a01b0316156106175760405163932d94f760e01b815260040160405180910390fd5b600080546001600160a01b0319166001600160a01b0392909216919091179055565b6000546001600160a01b031633146106645760405163932d94f760e01b815260040160405180910390fd5b60008160008151811061067957610679610d86565b6020026020010151905060005b60025481101561078157606461069d83606e610dd0565b6106a79190610de7565b836106b3836001610d6d565b815181106106c3576106c3610d86565b60200260200101511080156107105750600a6106e0836009610dd0565b6106ea9190610de7565b836106f6836001610d6d565b8151811061070657610706610d86565b6020026020010151115b156107795782610721826001610d6d565b8151811061073157610731610d86565b6020026020010151600160006002848154811061075057610750610d86565b60009182526020808320909101546001600160a01b031683528201929092526040019020600301555b600101610686565b505050565b6000546001600160a01b031633146107b15760405163932d94f760e01b815260040160405180910390fd5b6001600160a01b03818116600090815260016020526040902054166107e95760405163362a281160e01b815260040160405180910390fd5b6001600160a01b0381166000818152600160208190526040808320600501805460ff1916909217909155517f485af27643b0f91058287eb2aa76b88703036e31298f4a07f7efbbbf7ffa5f8b9190a250565b336000908152600160205260409020546001600160a01b03161561087257604051630b792c8f60e01b815260040160405180910390fd5b6040805160c0810182523380825260208083018581528385018790526000606085018190526080850181905260a0850181905292835260019182905293909120825181546001600160a01b0319166001600160a01b039091161781559251919291908201906108e19082610e57565b50604082015160028201906108f69082610e57565b50606082015160038201556080820151600482015560a0909101516005909101805460ff1916911515919091179055600280546001810182556000919091527f405787fa12a823e0f2b7631cc41b3ba8828b3321ca811111fa75cd3aa3bb5ace018054336001600160a01b031990911681179091556040517f4d954d97ff5f7e3ceb48557e63515f2b6d839b08e9cb52c79f8be5347e86ad559061099b908590610f16565b60405180910390a25050565b80356001600160a01b03811681146109be57600080fd5b919050565b600080604083850312156109d657600080fd5b6109df836109a7565b946020939093013593505050565b6000815180845260005b81811015610a13576020818501810151868301820152016109f7565b506000602082860101526020601f19601f83011685010191505092915050565b6000602082016020835280845180835260408501915060408160051b86010192506020860160005b82811015610ae857868503603f19018452815180516001600160a01b0316865260208082015160c091880182905290610a96908801826109ed565b905060408201518782036040890152610aaf82826109ed565b606084810151908a0152608080850151908a015260a0938401511515939098019290925250506020938401939190910190600101610a5b565b50929695505050505050565b600060208284031215610b0657600080fd5b5035919050565b600060208284031215610b1f57600080fd5b610b28826109a7565b9392505050565b6001600160a01b038716815260c060208201819052600090610b53908301886109ed565b8281036040840152610b6581886109ed565b606084019690965250506080810192909252151560a0909101529392505050565b634e487b7160e01b600052604160045260246000fd5b604051601f8201601f1916810167ffffffffffffffff81118282101715610bc557610bc5610b86565b604052919050565b600060208284031215610bdf57600080fd5b813567ffffffffffffffff811115610bf657600080fd5b8201601f81018413610c0757600080fd5b803567ffffffffffffffff811115610c2157610c21610b86565b8060051b610c3160208201610b9c565b91825260208184018101929081019087841115610c4d57600080fd5b6020850194505b83851015610c7357843580835260209586019590935090910190610c54565b979650505050505050565b600082601f830112610c8f57600080fd5b813567ffffffffffffffff811115610ca957610ca9610b86565b610cbc601f8201601f1916602001610b9c565b818152846020838601011115610cd157600080fd5b816020850160208301376000918101602001919091529392505050565b60008060408385031215610d0157600080fd5b823567ffffffffffffffff811115610d1857600080fd5b610d2485828601610c7e565b925050602083013567ffffffffffffffff811115610d4157600080fd5b610d4d85828601610c7e565b9150509250929050565b634e487b7160e01b600052601160045260246000fd5b80820180821115610d8057610d80610d57565b92915050565b634e487b7160e01b600052603260045260246000fd5b600181811c90821680610db057607f821691505b60208210810361046857634e487b7160e01b600052602260045260246000fd5b8082028115828204841417610d8057610d80610d57565b600082610e0457634e487b7160e01b600052601260045260246000fd5b500490565b601f82111561078157806000526020600020601f840160051c81016020851015610e305750805b601f840160051c820191505b81811015610e505760008155600101610e3c565b5050505050565b815167ffffffffffffffff811115610e7157610e71610b86565b610e8581610e7f8454610d9c565b84610e09565b6020601f821160018114610eb95760008315610ea15750848201515b600019600385901b1c1916600184901b178455610e50565b600084815260208120601f198516915b82811015610ee95787850151825560209485019460019092019101610ec9565b5084821015610f075786840151600019600387901b60f8161c191681555b50505050600190811b01905550565b602081526000610b2860208301846109ed56fea264697066735822122092e8f64203d7818dbe206743ea6f598703dbcb73c8571dbbb8c4931c4dfdb30e64736f6c634300081c0033",
    "linkReferences": {}
  },
  "methodIdentifiers": {
    "acceptApplication(address)": "a678b65b",
    "applicants(uint256)": "63de5323",
    "applications(address)": "7c3bf42d",
    "getApplications()": "43900e78",
    "proposalAddress()": "10c35025",
    "setBudgets(uint256[])": "9e394c06",
    "setProposalAddress(address)": "8db98051",
    "submitApplication(string,string)": "d508a6d6",
    "voteForApplication(address,uint256)": "317d934f"
  },
  "id": 17
}