{
  "abi": [
    {
      "type": "function",
      "name": "createProposal",
      "inputs": [
        {
          "name": "_description",
          "type": "string",
          "internalType": "string"
        },
        {
          "name": "_encrypted_budget",
          "type": "string",
          "internalType": "string"
        },
        {
          "name": "_submission_phase_end_timestamp",
          "type": "uint256",
          "internalType": "uint256"
        },
        {
          "name": "_voting_phase_end_timestamp",
          "type": "uint256",
          "internalType": "uint256"
        },
        {
          "name": "_token",
          "type": "address",
          "internalType": "contract IERC20"
        }
      ],
      "outputs": [],
      "stateMutability": "nonpayable"
    },
    {
      "type": "function",
      "name": "getAllProposals",
      "inputs": [],
      "outputs": [
        {
          "name": "",
          "type": "address[]",
          "internalType": "contract JobProposal[]"
        }
      ],
      "stateMutability": "view"
    },
    {
      "type": "function",
      "name": "proposals",
      "inputs": [
        {
          "name": "",
          "type": "uint256",
          "internalType": "uint256"
        }
      ],
      "outputs": [
        {
          "name": "",
          "type": "address",
          "internalType": "contract JobProposal"
        }
      ],
      "stateMutability": "view"
    },
    {
      "type": "event",
      "name": "ProposalCreated",
      "inputs": [
        {
          "name": "proposalAddress",
          "type": "address",
          "indexed": false,
          "internalType": "address"
        },
        {
          "name": "creator",
          "type": "address",
          "indexed": false,
          "internalType": "address"
        }
      ],
      "anonymous": false
    },
    {
      "type": "error",
      "name": "InvalidImplementationAddress",
      "inputs": []
    }
  ],
  "bytecode": {
    "object": "0x6080604052348015600f57600080fd5b50613a988061001f6000396000f3fe608060405234801561001057600080fd5b50600436106100415760003560e01c8063013cf08b1461004657806330ce59c314610076578063cceb68f51461008b575b600080fd5b6100596100543660046102a1565b6100a0565b6040516001600160a01b0390911681526020015b60405180910390f35b61008961008436600461035f565b6100ca565b005b610093610225565b60405161006d91906103fc565b600081815481106100b057600080fd5b6000918252602090912001546001600160a01b0316905081565b60006040516100d890610287565b604051809103906000f0801580156100f4573d6000803e3d6000fd5b50905060008686868633868860405161010c90610294565b61011c979695949392919061048e565b604051809103906000f080158015610138573d6000803e3d6000fd5b50604051638db9805160e01b81526001600160a01b03808316600483015291925090831690638db9805190602401600060405180830381600087803b15801561018057600080fd5b505af1158015610194573d6000803e3d6000fd5b5050600080546001810182559080527f290decd9548b62a8d60345a988386fc84ba6bc95484008f6362f93160ef3e5630180546001600160a01b0319166001600160a01b038516908117909155604080519182523360208301527f452ab1b43e295baa201eb0d01fcbcb6bd9f5f2035554bcf6f3e1fedbbc53d830935001905060405180910390a150505050505050565b6060600080548060200260200160405190810160405280929190818152602001828054801561027d57602002820191906000526020600020905b81546001600160a01b0316815260019091019060200180831161025f575b5050505050905090565b610f9b806104eb83390190565b6125dd8061148683390190565b6000602082840312156102b357600080fd5b5035919050565b634e487b7160e01b600052604160045260246000fd5b600082601f8301126102e157600080fd5b813567ffffffffffffffff8111156102fb576102fb6102ba565b604051601f8201601f19908116603f0116810167ffffffffffffffff8111828210171561032a5761032a6102ba565b60405281815283820160200185101561034257600080fd5b816020850160208301376000918101602001919091529392505050565b600080600080600060a0868803121561037757600080fd5b853567ffffffffffffffff81111561038e57600080fd5b61039a888289016102d0565b955050602086013567ffffffffffffffff8111156103b757600080fd5b6103c3888289016102d0565b945050604086013592506060860135915060808601356001600160a01b03811681146103ee57600080fd5b809150509295509295909350565b602080825282518282018190526000918401906040840190835b8181101561043d5783516001600160a01b0316835260209384019390920191600101610416565b509095945050505050565b6000815180845260005b8181101561046e57602081850181015186830182015201610452565b506000602082860101526020601f19601f83011685010191505092915050565b60e0815260006104a160e083018a610448565b82810360208401526104b3818a610448565b6040840198909852505060608101949094526001600160a01b03928316608085015290821660a08401521660c0909101529291505056fe6080604052348015600f57600080fd5b50610f7c8061001f6000396000f3fe608060405234801561001057600080fd5b50600436106100935760003560e01c80637c3bf42d116100665780637c3bf42d14610105578063856e9c1e1461012a5780638db980511461013d578063a678b65b14610150578063d508a6d61461016357600080fd5b806310c3502514610098578063317d934f146100c857806343900e78146100dd57806363de5323146100f2575b600080fd5b6000546100ab906001600160a01b031681565b6040516001600160a01b0390911681526020015b60405180910390f35b6100db6100d63660046109b8565b610176565b005b6100e56101fc565b6040516100bf9190610a28565b6100ab610100366004610ae9565b61046e565b610118610113366004610b02565b610498565b6040516100bf96959493929190610b24565b6100db610138366004610bc2565b6105ed565b6100db61014b366004610b02565b61072f565b6100db61015e366004610b02565b61077b565b6100db610171366004610cf1565b610830565b6000546001600160a01b031633146101a15760405163932d94f760e01b815260040160405180910390fd5b6001600160a01b038216600090815260016020526040812060038101549091036101de57604051636aee863360e11b815260040160405180910390fd5b818160040160008282546101f29190610d70565b9091555050505050565b60025460609060009067ffffffffffffffff81111561021d5761021d610b7b565b60405190808252806020026020018201604052801561029257816020015b61027f6040518060c0016040528060006001600160a01b03168152602001606081526020016060815260200160008152602001600081526020016000151581525090565b81526020019060019003908161023b5790505b50905060005b6002548110156104685760016000600283815481106102b9576102b9610d89565b60009182526020808320909101546001600160a01b039081168452838201949094526040928301909120825160c08101909352805490931682526001830180549293929184019161030990610d9f565b80601f016020809104026020016040519081016040528092919081815260200182805461033590610d9f565b80156103825780601f1061035757610100808354040283529160200191610382565b820191906000526020600020905b81548152906001019060200180831161036557829003601f168201915b5050505050815260200160028201805461039b90610d9f565b80601f01602080910402602001604051908101604052809291908181526020018280546103c790610d9f565b80156104145780601f106103e957610100808354040283529160200191610414565b820191906000526020600020905b8154815290600101906020018083116103f757829003601f168201915b5050509183525050600382015460208201526004820154604082015260059091015460ff161515606090910152825183908390811061045557610455610d89565b6020908102919091010152600101610298565b50919050565b6002818154811061047e57600080fd5b6000918252602090912001546001600160a01b0316905081565b6001602081905260009182526040909120805491810180546001600160a01b03909316926104c590610d9f565b80601f01602080910402602001604051908101604052809291908181526020018280546104f190610d9f565b801561053e5780601f106105135761010080835404028352916020019161053e565b820191906000526020600020905b81548152906001019060200180831161052157829003601f168201915b50505050509080600201805461055390610d9f565b80601f016020809104026020016040519081016040528092919081815260200182805461057f90610d9f565b80156105cc5780601f106105a1576101008083540402835291602001916105cc565b820191906000526020600020905b8154815290600101906020018083116105af57829003601f168201915b50505050600383015460048401546005909401549293909290915060ff1686565b6000546001600160a01b031633146106185760405163932d94f760e01b815260040160405180910390fd5b60008160008151811061062d5761062d610d89565b602002602001015190506000600190505b60025481101561072a57606461065583606e610dd3565b61065f9190610df6565b60ff1683828151811061067457610674610d89565b602002602001015160ff161080156106c05750600a610694836009610dd3565b61069e9190610df6565b60ff168382815181106106b3576106b3610d89565b602002602001015160ff16115b15610722578281815181106106d7576106d7610d89565b602002602001015160ff1660016000600284815481106106f9576106f9610d89565b60009182526020808320909101546001600160a01b031683528201929092526040019020600301555b60010161063e565b505050565b6000546001600160a01b0316156107595760405163932d94f760e01b815260040160405180910390fd5b600080546001600160a01b0319166001600160a01b0392909216919091179055565b6000546001600160a01b031633146107a65760405163932d94f760e01b815260040160405180910390fd5b6001600160a01b03818116600090815260016020526040902054166107de5760405163362a281160e01b815260040160405180910390fd5b6001600160a01b0381166000818152600160208190526040808320600501805460ff1916909217909155517f485af27643b0f91058287eb2aa76b88703036e31298f4a07f7efbbbf7ffa5f8b9190a250565b336000908152600160205260409020546001600160a01b03161561086757604051630b792c8f60e01b815260040160405180910390fd5b6040805160c0810182523380825260208083018581528385018790526000606085018190526080850181905260a0850181905292835260019182905293909120825181546001600160a01b0319166001600160a01b039091161781559251919291908201906108d69082610e74565b50604082015160028201906108eb9082610e74565b50606082015160038201556080820151600482015560a0909101516005909101805460ff1916911515919091179055600280546001810182556000919091527f405787fa12a823e0f2b7631cc41b3ba8828b3321ca811111fa75cd3aa3bb5ace018054336001600160a01b031990911681179091556040517f4d954d97ff5f7e3ceb48557e63515f2b6d839b08e9cb52c79f8be5347e86ad5590610990908590610f33565b60405180910390a25050565b80356001600160a01b03811681146109b357600080fd5b919050565b600080604083850312156109cb57600080fd5b6109d48361099c565b946020939093013593505050565b6000815180845260005b81811015610a08576020818501810151868301820152016109ec565b506000602082860101526020601f19601f83011685010191505092915050565b6000602082016020835280845180835260408501915060408160051b86010192506020860160005b82811015610add57868503603f19018452815180516001600160a01b0316865260208082015160c091880182905290610a8b908801826109e2565b905060408201518782036040890152610aa482826109e2565b606084810151908a0152608080850151908a015260a0938401511515939098019290925250506020938401939190910190600101610a50565b50929695505050505050565b600060208284031215610afb57600080fd5b5035919050565b600060208284031215610b1457600080fd5b610b1d8261099c565b9392505050565b6001600160a01b038716815260c060208201819052600090610b48908301886109e2565b8281036040840152610b5a81886109e2565b606084019690965250506080810192909252151560a0909101529392505050565b634e487b7160e01b600052604160045260246000fd5b604051601f8201601f1916810167ffffffffffffffff81118282101715610bba57610bba610b7b565b604052919050565b600060208284031215610bd457600080fd5b813567ffffffffffffffff811115610beb57600080fd5b8201601f81018413610bfc57600080fd5b803567ffffffffffffffff811115610c1657610c16610b7b565b8060051b610c2660208201610b91565b91825260208184018101929081019087841115610c4257600080fd5b6020850194505b83851015610c76578435925060ff83168314610c6457600080fd5b82825260209485019490910190610c49565b979650505050505050565b600082601f830112610c9257600080fd5b813567ffffffffffffffff811115610cac57610cac610b7b565b610cbf601f8201601f1916602001610b91565b818152846020838601011115610cd457600080fd5b816020850160208301376000918101602001919091529392505050565b60008060408385031215610d0457600080fd5b823567ffffffffffffffff811115610d1b57600080fd5b610d2785828601610c81565b925050602083013567ffffffffffffffff811115610d4457600080fd5b610d5085828601610c81565b9150509250929050565b634e487b7160e01b600052601160045260246000fd5b80820180821115610d8357610d83610d5a565b92915050565b634e487b7160e01b600052603260045260246000fd5b600181811c90821680610db357607f821691505b60208210810361046857634e487b7160e01b600052602260045260246000fd5b60ff8181168382160290811690818114610def57610def610d5a565b5092915050565b600060ff831680610e1757634e487b7160e01b600052601260045260246000fd5b8060ff84160491505092915050565b601f82111561072a57806000526020600020601f840160051c81016020851015610e4d5750805b601f840160051c820191505b81811015610e6d5760008155600101610e59565b5050505050565b815167ffffffffffffffff811115610e8e57610e8e610b7b565b610ea281610e9c8454610d9f565b84610e26565b6020601f821160018114610ed65760008315610ebe5750848201515b600019600385901b1c1916600184901b178455610e6d565b600084815260208120601f198516915b82811015610f065787850151825560209485019460019092019101610ee6565b5084821015610f245786840151600019600387901b60f8161c191681555b50505050600190811b01905550565b602081526000610b1d60208301846109e256fea2646970667358221220c01b604d4be8418cd5f1b6d1643c4376bac09c502fb04fbee55b31f00c40f1e664736f6c634300081c003360a060405234801561001057600080fd5b506040516125dd3803806125dd83398101604081905261002f9161019b565b73b83e47c2bc239b3bf370bc41e1459a34b41238d0608052600480546001600160a01b038581166001600160a01b0319928316179092556005805492851692909116919091179055600361008388826102df565b50600661009087826102df565b50600a80546001600160a01b0390921661010002610100600160a81b031990921691909117905550506008919091556009555061039d9050565b634e487b7160e01b600052604160045260246000fd5b600082601f8301126100f157600080fd5b81516001600160401b0381111561010a5761010a6100ca565b604051601f8201601f19908116603f011681016001600160401b0381118282101715610138576101386100ca565b60405281815283820160200185101561015057600080fd5b60005b8281101561016f57602081860181015183830182015201610153565b506000918101602001919091529392505050565b6001600160a01b038116811461019857600080fd5b50565b600080600080600080600060e0888a0312156101b657600080fd5b87516001600160401b038111156101cc57600080fd5b6101d88a828b016100e0565b60208a015190985090506001600160401b038111156101f657600080fd5b6102028a828b016100e0565b60408a015160608b015160808c01519299509097509550905061022481610183565b60a089015190935061023581610183565b60c089015190925061024681610183565b8091505092959891949750929550565b600181811c9082168061026a57607f821691505b60208210810361028a57634e487b7160e01b600052602260045260246000fd5b50919050565b601f8211156102da57806000526020600020601f840160051c810160208510156102b75750805b601f840160051c820191505b818110156102d757600081556001016102c3565b50505b505050565b81516001600160401b038111156102f8576102f86100ca565b61030c816103068454610256565b84610290565b6020601f82116001811461034057600083156103285750848201515b600019600385901b1c1916600184901b1784556102d7565b600084815260208120601f198516915b828110156103705787850151825560209485019460019092019101610350565b508482101561038e5786840151600019600387901b60f8161c191681555b50505050600190811b01905550565b60805161221e6103bf600039600081816102f9015261122f015261221e6000f3fe608060405234801561001057600080fd5b50600436106101375760003560e01c806361461954116100b8578063a5b39cfb1161007c578063a5b39cfb14610263578063b1e2174914610283578063d8bff5a51461028c578063ed01bf29146102af578063f1e6c623146102ce578063f96dae0a146102d657600080fd5b806361461954146102245780637284e4161461022c5780637bd41bd914610234578063856e9c1e1461023d5780639c1e326c1461025057600080fd5b8063352b70dc116100ff578063352b70dc146101ce5780633944ea3a146101e1578063498b77f3146101f65780634b0795a8146102095780635f74bbde1461021157600080fd5b806302d05d3f1461013c5780630ca761751461016c578063108cb0891461018157806317d628cd1461019a57806331a38c89146101b1575b600080fd5b60045461014f906001600160a01b031681565b6040516001600160a01b0390911681526020015b60405180910390f35b61017f61017a366004611914565b6102ee565b005b610189610372565b6040516101639594939291906119d4565b6101a360095481565b604051908152602001610163565b600a546101be9060ff1681565b6040519015158152602001610163565b60055461014f906001600160a01b031681565b6101e9610446565b6040516101639190611a16565b61014f610204366004611a29565b6104d4565b6101e96104fe565b61017f61021f366004611a5a565b61050b565b61017f610725565b6101e9610973565b6101a360085481565b61017f61024b366004611aa9565b610980565b6101a361025e366004611b4d565b610a41565b6101a3610271366004611bdf565b600d6020526000908152604090205481565b6101a360005481565b6101be61029a366004611bdf565b600b6020526000908152604090205460ff1681565b6007546102bc9060ff1681565b60405160ff9091168152602001610163565b6101e9610ca9565b600a5461014f9061010090046001600160a01b031681565b336001600160a01b037f000000000000000000000000000000000000000000000000000000000000000016146103375760405163c6829f8360e01b815260040160405180910390fd5b610342838383610cb6565b60405183907f85e1543bf2f84fe80c6badbce3648c8539ad1df4d2b3d822938ca0538be727e690600090a2505050565b600454600754600854600a5460038054606095600095869586958695946001600160a01b039094169360ff938416939091169085906103b090611bfc565b80601f01602080910402602001604051908101604052809291908181526020018280546103dc90611bfc565b80156104295780601f106103fe57610100808354040283529160200191610429565b820191906000526020600020905b81548152906001019060200180831161040c57829003601f168201915b50939e979d505060ff9095169a5092985090965092945050505050565b6001805461045390611bfc565b80601f016020809104026020016040519081016040528092919081815260200182805461047f90611bfc565b80156104cc5780601f106104a1576101008083540402835291602001916104cc565b820191906000526020600020905b8154815290600101906020018083116104af57829003601f168201915b505050505081565b600c81815481106104e457600080fd5b6000918252602090912001546001600160a01b0316905081565b6002805461045390611bfc565b336000908152600b602052604090205460ff161561053c57604051637c9a1cf960e01b815260040160405180910390fd5b600a546040516370a0823160e01b815233600482015260009161010090046001600160a01b0316906370a0823190602401602060405180830381865afa15801561058a573d6000803e3d6000fd5b505050506040513d601f19601f820116820180604052508101906105ae9190611c36565b9050818110156105d1576040516378dbf0af60e11b815260040160405180910390fd5b60055460405163317d934f60e01b81526001600160a01b038581166004830152602482018590529091169063317d934f90604401600060405180830381600087803b15801561061f57600080fd5b505af1158015610633573d6000803e3d6000fd5b5050336000818152600d60209081526040808320889055600b8252808320805460ff19166001908117909155600c805491820181559093527fdf6966c971051c3d54ec59162606531493a51404a002842f56009d7e5cf4a8c790920180546001600160a01b0319168417905581519283526001600160a01b0388169083015281018490527f174ba19ba3c8bb5c679c87e51db79fff7c3f04bb84c1fd55b7dacb470b674aa69250606001905060405180910390a160408051338152602081018390527fb539ca1e5c8d398ddf1c41c30166f33404941683be4683319b57669a93dad4ef910160405180910390a1505050565b6004546001600160a01b03163314610750576040516308f78f9960e31b815260040160405180910390fd5b600a5460ff1615610774576040516351618d5360e01b815260040160405180910390fd5b6005546040805163087201cf60e31b815290516000926001600160a01b0316916343900e7891600480830192869291908290030181865afa1580156107bd573d6000803e3d6000fd5b505050506040513d6000823e601f3d908101601f191682016040526107e59190810190611cbc565b9050600080805b8351811015610863578284828151811061080857610808611e0f565b602002602001015160800151111561085b5783818151811061082c5761082c611e0f565b602002602001015160800151925083818151811061084c5761084c611e0f565b60200260200101516000015191505b6001016107ec565b5060055460405163a678b65b60e01b81526001600160a01b0383811660048301529091169063a678b65b90602401600060405180830381600087803b1580156108ab57600080fd5b505af11580156108bf573d6000803e3d6000fd5b5050505060005b600c54811015610960576000600c82815481106108e5576108e5611e0f565b60009182526020808320909101546001600160a01b0316808352600d909152604090912054909150801561095657604080516001600160a01b0384168152602081018390527f9845e367b683334e5c0b12d7b81721ac518e649376fa65e3d68324e8f34f2679910160405180910390a15b50506001016108c6565b5050600a805460ff191660011790555050565b6003805461045390611bfc565b6004546001600160a01b031633146109ab576040516308f78f9960e31b815260040160405180910390fd5b806000815181106109be576109be611e0f565b60209081029190910101516007805460ff191660ff9092169190911790556005546040516342b74e0f60e11b81526001600160a01b039091169063856e9c1e90610a0c908490600401611e25565b600060405180830381600087803b158015610a2657600080fd5b505af1158015610a3a573d6000803e3d6000fd5b5050505050565b6004546000906001600160a01b03163314610a6f576040516308f78f9960e31b815260040160405180910390fd5b60075460ff1615610a935760405163385b098560e21b815260040160405180910390fd5b6005546040805163087201cf60e31b815290516000926001600160a01b0316916343900e7891600480830192869291908290030181865afa158015610adc573d6000803e3d6000fd5b505050506040513d6000823e601f3d908101601f19168201604052610b049190810190611cbc565b9050600081516002610b169190611e81565b6001600160401b03811115610b2d57610b2d611821565b604051908082528060200260200182016040528015610b6057816020015b6060815260200190600190039081610b4b5790505b509050610b6e600854610d3a565b81600081518110610b8157610b81611e0f565b602002602001018190525060068054610b9990611bfc565b80601f0160208091040260200160405190810160405280929190818152602001828054610bc590611bfc565b8015610c125780601f10610be757610100808354040283529160200191610c12565b820191906000526020600020905b815481529060010190602001808311610bf557829003601f168201915b505050505081600181518110610c2a57610c2a611e0f565b602002602001018190525060005b8251811015610c9057828181518110610c5357610c53611e0f565b60200260200101516040015182826002610c6d9190611e81565b81518110610c7d57610c7d611e0f565b6020908102919091010152600101610c38565b50610c9e8782888888610dcc565b979650505050505050565b6006805461045390611bfc565b8260005414610cdf5760405163d068bf5b60e01b81526004810184905260240160405180910390fd5b6001610ceb8382611edb565b506002610cf88282611edb565b50827f7873807bf6ddc50401cd3d29bbe0decee23fd4d68d273f4b5eb83cded4d2f17260016002604051610d2d92919061201c565b60405180910390a2505050565b60606000610d4783610e4e565b60010190506000816001600160401b03811115610d6657610d66611821565b6040519080825280601f01601f191660200182016040528015610d90576020820181803683370190505b5090508181016020015b600019016f181899199a1a9b1b9c1cb0b131b232b360811b600a86061a8153600a8504945084610d9a57509392505050565b6000610e0f6040805160e0810190915280600081526020016000815260200160008152602001606081526020016060815260200160608152602001606081525090565b610e198188610f27565b855115610e2a57610e2a8187610f38565b610e3e610e3682610f62565b86868661122a565b6000819055979650505050505050565b60008072184f03e93ff9f4daa797ed6e38ed64bf6a1f0160401b8310610e8d5772184f03e93ff9f4daa797ed6e38ed64bf6a1f0160401b830492506040015b6d04ee2d6d415b85acef81000000008310610eb9576d04ee2d6d415b85acef8100000000830492506020015b662386f26fc100008310610ed757662386f26fc10000830492506010015b6305f5e1008310610eef576305f5e100830492506008015b6127108310610f0357612710830492506004015b60648310610f15576064830492506002015b600a8310610f21576001015b92915050565b610f3482600080846112fc565b5050565b8051600003610f5a5760405163fe936cb760e01b815260040160405180910390fd5b60a090910152565b60606000610f7161010061137a565b9050610faa6040518060400160405280600c81526020016b31b7b232a637b1b0ba34b7b760a11b8152508261139b90919063ffffffff16565b8251610fc8906002811115610fc157610fc161204a565b82906113b9565b6040805180820190915260088152676c616e677561676560c01b6020820152610ff290829061139b565b6040830151611009908015610fc157610fc161204a565b604080518082019091526006815265736f7572636560d01b602082015261103190829061139b565b606083015161104190829061139b565b60a083015151156110cd576040805180820190915260048152636172677360e01b602082015261107290829061139b565b61107b816113f2565b60005b8360a00151518110156110c3576110bb8460a0015182815181106110a4576110a4611e0f565b60200260200101518361139b90919063ffffffff16565b60010161107e565b506110cd81611416565b60808301515115611191576000836020015160028111156110f0576110f061204a565b0361110e5760405163a80d31f760e01b815260040160405180910390fd5b60408051808201909152600f81526e39b2b1b932ba39a637b1b0ba34b7b760891b602082015261113f90829061139b565b61115883602001516002811115610fc157610fc161204a565b6040805180820190915260078152667365637265747360c81b602082015261118190829061139b565b6080830151611191908290611434565b60c083015151156112225760408051808201909152600981526862797465734172677360b81b60208201526111c790829061139b565b6111d0816113f2565b60005b8360c0015151811015611218576112108460c0015182815181106111f9576111f9611e0f565b60200260200101518361143490919063ffffffff16565b6001016111d3565b5061122281611416565b515192915050565b6000807f00000000000000000000000000000000000000000000000000000000000000006001600160a01b031663461d27628688600188886040518663ffffffff1660e01b8152600401611282959493929190612060565b6020604051808303816000875af11580156112a1573d6000803e3d6000fd5b505050506040513d601f19601f820116820180604052508101906112c59190611c36565b60405190915081907f1131472297a800fee664d1d89cfa8f7676ff07189ecc53f80bbb5f4969099db890600090a295945050505050565b805160000361131e576040516322ce3edd60e01b815260040160405180910390fd5b838360028111156113315761133161204a565b908160028111156113445761134461204a565b9052506040840182801561135a5761135a61204a565b9081801561136a5761136a61204a565b9052506060909301929092525050565b6113826117ec565b805161138e9083611441565b5060006020820152919050565b6113a882600383516114b8565b81516113b490826115d7565b505050565b81516113c69060c26115ff565b50610f3482826040516020016113de91815260200190565b604051602081830303815290604052611434565b6113fd816004611668565b6001816020018181516114109190611e81565b90525050565b611421816007611668565b60018160200181815161141091906120a9565b6113a882600283516114b8565b6040805180820190915260608152600060208201526114616020836120bc565b15611489576114716020836120bc565b61147c9060206120a9565b6114869083611e81565b91505b6020808401839052604051808552600081529081840101818110156114ad57600080fd5b604052509192915050565b6017816001600160401b0316116114e45782516114de9060e0600585901b1683176115ff565b50505050565b60ff816001600160401b03161161152457825161150c906018611fe0600586901b16176115ff565b5082516114de906001600160401b038316600161167f565b61ffff816001600160401b03161161156557825161154d906019611fe0600586901b16176115ff565b5082516114de906001600160401b038316600261167f565b63ffffffff816001600160401b0316116115a857825161159090601a611fe0600586901b16176115ff565b5082516114de906001600160401b038316600461167f565b82516115bf90601b611fe0600586901b16176115ff565b5082516114de906001600160401b038316600861167f565b6040805180820190915260608152600060208201526115f883838451611704565b9392505050565b6040805180820190915260608152600060208201528251516000611624826001611e81565b90508460200151821061164557611645856116408360026120de565b6117d5565b845160208382010185815350805182111561165e578181525b5093949350505050565b81516113b490601f611fe0600585901b16176115ff565b60408051808201909152606081526000602082015283515160006116a38285611e81565b905085602001518111156116c0576116c0866116408360026120de565b600060016116d0866101006121dc565b6116da91906120a9565b905086518281018783198251161781525080518311156116f8578281525b50959695505050505050565b604080518082019091526060815260006020820152825182111561172757600080fd5b83515160006117368483611e81565b9050856020015181111561175357611753866116408360026120de565b85518051838201602001916000918085111561176d578482525b505050602086015b602086106117ad578051825261178c602083611e81565b9150611799602082611e81565b90506117a66020876120a9565b9550611775565b51815160001960208890036101000a0190811690199190911617905250849150509392505050565b81516117e18383611441565b506114de83826115d7565b6040518060400160405280611814604051806040016040528060608152602001600081525090565b8152602001600081525090565b634e487b7160e01b600052604160045260246000fd5b60405160c081016001600160401b038111828210171561185957611859611821565b60405290565b604051601f8201601f191681016001600160401b038111828210171561188757611887611821565b604052919050565b60006001600160401b038211156118a8576118a8611821565b50601f01601f191660200190565b60006118c96118c48461188f565b61185f565b90508281528383830111156118dd57600080fd5b828260208301376000602084830101529392505050565b600082601f83011261190557600080fd5b6115f8838335602085016118b6565b60008060006060848603121561192957600080fd5b8335925060208401356001600160401b0381111561194657600080fd5b611952868287016118f4565b92505060408401356001600160401b0381111561196e57600080fd5b61197a868287016118f4565b9150509250925092565b60005b8381101561199f578181015183820152602001611987565b50506000910152565b600081518084526119c0816020860160208601611984565b601f01601f19169290920160200192915050565b60a0815260006119e760a08301886119a8565b6001600160a01b0396909616602083015250604081019390935260608301919091521515608090910152919050565b6020815260006115f860208301846119a8565b600060208284031215611a3b57600080fd5b5035919050565b6001600160a01b0381168114611a5757600080fd5b50565b60008060408385031215611a6d57600080fd5b8235611a7881611a42565b946020939093013593505050565b60006001600160401b03821115611a9f57611a9f611821565b5060051b60200190565b600060208284031215611abb57600080fd5b81356001600160401b03811115611ad157600080fd5b8201601f81018413611ae257600080fd5b8035611af06118c482611a86565b8082825260208201915060208360051b850101925086831115611b1257600080fd5b6020840193505b82841015611b4357833560ff81168114611b3257600080fd5b825260209384019390910190611b19565b9695505050505050565b60008060008060808587031215611b6357600080fd5b84356001600160401b03811115611b7957600080fd5b8501601f81018713611b8a57600080fd5b611b99878235602084016118b6565b94505060208501356001600160401b0381168114611bb657600080fd5b9250604085013563ffffffff81168114611bcf57600080fd5b9396929550929360600135925050565b600060208284031215611bf157600080fd5b81356115f881611a42565b600181811c90821680611c1057607f821691505b602082108103611c3057634e487b7160e01b600052602260045260246000fd5b50919050565b600060208284031215611c4857600080fd5b5051919050565b8051611c5a81611a42565b919050565b600082601f830112611c7057600080fd5b8151611c7e6118c48261188f565b818152846020838601011115611c9357600080fd5b611ca4826020830160208701611984565b949350505050565b80518015158114611c5a57600080fd5b600060208284031215611cce57600080fd5b81516001600160401b03811115611ce457600080fd5b8201601f81018413611cf557600080fd5b8051611d036118c482611a86565b8082825260208201915060208360051b850101925086831115611d2557600080fd5b602084015b83811015611e045780516001600160401b03811115611d4857600080fd5b850160c0818a03601f19011215611d5e57600080fd5b611d66611837565b611d7260208301611c4f565b815260408201516001600160401b03811115611d8d57600080fd5b611d9c8b602083860101611c5f565b60208301525060608201516001600160401b03811115611dbb57600080fd5b611dca8b602083860101611c5f565b604083015250608082810151606083015260a083015190820152611df060c08301611cac565b60a082015284525060209283019201611d2a565b509695505050505050565b634e487b7160e01b600052603260045260246000fd5b602080825282518282018190526000918401906040840190835b81811015611e6057835160ff16835260209384019390920191600101611e3f565b509095945050505050565b634e487b7160e01b600052601160045260246000fd5b80820180821115610f2157610f21611e6b565b601f8211156113b457806000526020600020601f840160051c81016020851015611ebb5750805b601f840160051c820191505b81811015610a3a5760008155600101611ec7565b81516001600160401b03811115611ef457611ef4611821565b611f0881611f028454611bfc565b84611e94565b6020601f821160018114611f3c5760008315611f245750848201515b600019600385901b1c1916600184901b178455610a3a565b600084815260208120601f198516915b82811015611f6c5787850151825560209485019460019092019101611f4c565b5084821015611f8a5786840151600019600387901b60f8161c191681555b50505050600190811b01905550565b60008154611fa681611bfc565b808552600182168015611fc05760018114611fdc57612013565b60ff1983166020870152602082151560051b8701019350612013565b84600052602060002060005b8381101561200a5781546020828a010152600182019150602081019050611fe8565b87016020019450505b50505092915050565b60408152600061202f6040830185611f99565b82810360208401526120418185611f99565b95945050505050565b634e487b7160e01b600052602160045260246000fd5b6001600160401b038616815260a06020820152600061208260a08301876119a8565b61ffff9590951660408301525063ffffffff92909216606083015260809091015292915050565b81810381811115610f2157610f21611e6b565b6000826120d957634e487b7160e01b600052601260045260246000fd5b500690565b8082028115828204841417610f2157610f21611e6b565b6001815b60018411156121305780850481111561211457612114611e6b565b600184161561212257908102905b60019390931c9280026120f9565b935093915050565b60008261214757506001610f21565b8161215457506000610f21565b816001811461216a576002811461217457612190565b6001915050610f21565b60ff84111561218557612185611e6b565b50506001821b610f21565b5060208310610133831016604e8410600b84101617156121b3575081810a610f21565b6121c060001984846120f5565b80600019048211156121d4576121d4611e6b565b029392505050565b60006115f8838361213856fea26469706673582212209b3353bd029c38e5a641372c6f272c032ec79d31e17acd17189fe7670775799364736f6c634300081c0033a2646970667358221220421f7b7b267838eabcbed38c22ae5a113fdf096e1dc41c228d75c10622469e4964736f6c634300081c0033",
    "linkReferences": {}
  },
  "methodIdentifiers": {
    "createProposal(string,string,uint256,uint256,address)": "30ce59c3",
    "getAllProposals()": "cceb68f5",
    "proposals(uint256)": "013cf08b"
  },
  "id": 24
}