{
  "abi": [
    {
      "type": "constructor",
      "inputs": [
        {
          "name": "_description",
          "type": "string",
          "internalType": "string"
        },
        {
          "name": "_encrypted_budget",
          "type": "string",
          "internalType": "string"
        },
        {
          "name": "_submission_phase_end_timestamp",
          "type": "uint256",
          "internalType": "uint256"
        },
        {
          "name": "_voting_phase_end_timestamp",
          "type": "uint256",
          "internalType": "uint256"
        },
        {
          "name": "_creator",
          "type": "address",
          "internalType": "address"
        },
        {
          "name": "_applicationSubmissionAddress",
          "type": "address",
          "internalType": "address"
        },
        {
          "name": "_token",
          "type": "address",
          "internalType": "contract IERC20"
        }
      ],
      "stateMutability": "nonpayable"
    },
    {
      "type": "function",
      "name": "applicationSubmissionAddress",
      "inputs": [],
      "outputs": [
        {
          "name": "",
          "type": "address",
          "internalType": "address"
        }
      ],
      "stateMutability": "view"
    },
    {
      "type": "function",
      "name": "budget",
      "inputs": [],
      "outputs": [
        {
          "name": "",
          "type": "uint256",
          "internalType": "uint256"
        }
      ],
      "stateMutability": "view"
    },
    {
      "type": "function",
      "name": "creator",
      "inputs": [],
      "outputs": [
        {
          "name": "",
          "type": "address",
          "internalType": "address"
        }
      ],
      "stateMutability": "view"
    },
    {
      "type": "function",
      "name": "description",
      "inputs": [],
      "outputs": [
        {
          "name": "",
          "type": "string",
          "internalType": "string"
        }
      ],
      "stateMutability": "view"
    },
    {
      "type": "function",
      "name": "encrypted_budget",
      "inputs": [],
      "outputs": [
        {
          "name": "",
          "type": "string",
          "internalType": "string"
        }
      ],
      "stateMutability": "view"
    },
    {
      "type": "function",
      "name": "execute",
      "inputs": [],
      "outputs": [],
      "stateMutability": "nonpayable"
    },
    {
      "type": "function",
      "name": "executed",
      "inputs": [],
      "outputs": [
        {
          "name": "",
          "type": "bool",
          "internalType": "bool"
        }
      ],
      "stateMutability": "view"
    },
    {
      "type": "function",
      "name": "getProposalDetails",
      "inputs": [],
      "outputs": [
        {
          "name": "",
          "type": "string",
          "internalType": "string"
        },
        {
          "name": "",
          "type": "address",
          "internalType": "address"
        },
        {
          "name": "",
          "type": "uint256",
          "internalType": "uint256"
        },
        {
          "name": "",
          "type": "uint256",
          "internalType": "uint256"
        },
        {
          "name": "",
          "type": "bool",
          "internalType": "bool"
        }
      ],
      "stateMutability": "view"
    },
    {
      "type": "function",
      "name": "governanceToken",
      "inputs": [],
      "outputs": [
        {
          "name": "",
          "type": "address",
          "internalType": "contract IERC20"
        }
      ],
      "stateMutability": "view"
    },
    {
      "type": "function",
      "name": "handleOracleFulfillment",
      "inputs": [
        {
          "name": "requestId",
          "type": "bytes32",
          "internalType": "bytes32"
        },
        {
          "name": "response",
          "type": "bytes",
          "internalType": "bytes"
        },
        {
          "name": "err",
          "type": "bytes",
          "internalType": "bytes"
        }
      ],
      "outputs": [],
      "stateMutability": "nonpayable"
    },
    {
      "type": "function",
      "name": "s_lastError",
      "inputs": [],
      "outputs": [
        {
          "name": "",
          "type": "bytes",
          "internalType": "bytes"
        }
      ],
      "stateMutability": "view"
    },
    {
      "type": "function",
      "name": "s_lastRequestId",
      "inputs": [],
      "outputs": [
        {
          "name": "",
          "type": "bytes32",
          "internalType": "bytes32"
        }
      ],
      "stateMutability": "view"
    },
    {
      "type": "function",
      "name": "s_lastResponse",
      "inputs": [],
      "outputs": [
        {
          "name": "",
          "type": "bytes",
          "internalType": "bytes"
        }
      ],
      "stateMutability": "view"
    },
    {
      "type": "function",
      "name": "setBudgets",
      "inputs": [
        {
          "name": "_budgets",
          "type": "uint256[]",
          "internalType": "uint256[]"
        }
      ],
      "outputs": [],
      "stateMutability": "nonpayable"
    },
    {
      "type": "function",
      "name": "stakedTokens",
      "inputs": [
        {
          "name": "",
          "type": "address",
          "internalType": "address"
        }
      ],
      "outputs": [
        {
          "name": "",
          "type": "uint256",
          "internalType": "uint256"
        }
      ],
      "stateMutability": "view"
    },
    {
      "type": "function",
      "name": "startRevealOfBudgets",
      "inputs": [
        {
          "name": "source",
          "type": "string",
          "internalType": "string"
        },
        {
          "name": "subscriptionId",
          "type": "uint64",
          "internalType": "uint64"
        },
        {
          "name": "gasLimit",
          "type": "uint32",
          "internalType": "uint32"
        },
        {
          "name": "donID",
          "type": "bytes32",
          "internalType": "bytes32"
        }
      ],
      "outputs": [
        {
          "name": "requestId",
          "type": "bytes32",
          "internalType": "bytes32"
        }
      ],
      "stateMutability": "nonpayable"
    },
    {
      "type": "function",
      "name": "submission_phase_end_timestamp",
      "inputs": [],
      "outputs": [
        {
          "name": "",
          "type": "uint256",
          "internalType": "uint256"
        }
      ],
      "stateMutability": "view"
    },
    {
      "type": "function",
      "name": "vote",
      "inputs": [
        {
          "name": "submitter",
          "type": "address",
          "internalType": "address"
        },
        {
          "name": "amount",
          "type": "uint256",
          "internalType": "uint256"
        }
      ],
      "outputs": [],
      "stateMutability": "nonpayable"
    },
    {
      "type": "function",
      "name": "voteAddresses",
      "inputs": [
        {
          "name": "",
          "type": "uint256",
          "internalType": "uint256"
        }
      ],
      "outputs": [
        {
          "name": "",
          "type": "address",
          "internalType": "address"
        }
      ],
      "stateMutability": "view"
    },
    {
      "type": "function",
      "name": "votes",
      "inputs": [
        {
          "name": "",
          "type": "address",
          "internalType": "address"
        }
      ],
      "outputs": [
        {
          "name": "",
          "type": "bool",
          "internalType": "bool"
        }
      ],
      "stateMutability": "view"
    },
    {
      "type": "function",
      "name": "voting_phase_end_timestamp",
      "inputs": [],
      "outputs": [
        {
          "name": "",
          "type": "uint256",
          "internalType": "uint256"
        }
      ],
      "stateMutability": "view"
    },
    {
      "type": "event",
      "name": "RequestFulfilled",
      "inputs": [
        {
          "name": "id",
          "type": "bytes32",
          "indexed": true,
          "internalType": "bytes32"
        }
      ],
      "anonymous": false
    },
    {
      "type": "event",
      "name": "RequestSent",
      "inputs": [
        {
          "name": "id",
          "type": "bytes32",
          "indexed": true,
          "internalType": "bytes32"
        }
      ],
      "anonymous": false
    },
    {
      "type": "event",
      "name": "Response",
      "inputs": [
        {
          "name": "requestId",
          "type": "bytes32",
          "indexed": true,
          "internalType": "bytes32"
        },
        {
          "name": "response",
          "type": "bytes",
          "indexed": false,
          "internalType": "bytes"
        },
        {
          "name": "err",
          "type": "bytes",
          "indexed": false,
          "internalType": "bytes"
        }
      ],
      "anonymous": false
    },
    {
      "type": "event",
      "name": "TokensStaked",
      "inputs": [
        {
          "name": "voter",
          "type": "address",
          "indexed": false,
          "internalType": "address"
        },
        {
          "name": "amount",
          "type": "uint256",
          "indexed": false,
          "internalType": "uint256"
        }
      ],
      "anonymous": false
    },
    {
      "type": "event",
      "name": "TokensUnstaked",
      "inputs": [
        {
          "name": "voter",
          "type": "address",
          "indexed": false,
          "internalType": "address"
        },
        {
          "name": "amount",
          "type": "uint256",
          "indexed": false,
          "internalType": "uint256"
        }
      ],
      "anonymous": false
    },
    {
      "type": "event",
      "name": "Voted",
      "inputs": [
        {
          "name": "voter",
          "type": "address",
          "indexed": false,
          "internalType": "address"
        },
        {
          "name": "submitter",
          "type": "address",
          "indexed": false,
          "internalType": "address"
        },
        {
          "name": "weight",
          "type": "uint256",
          "indexed": false,
          "internalType": "uint256"
        }
      ],
      "anonymous": false
    },
    {
      "type": "error",
      "name": "AlreadyVoted",
      "inputs": []
    },
    {
      "type": "error",
      "name": "BudgetAlreadyRevealed",
      "inputs": []
    },
    {
      "type": "error",
      "name": "EmptyArgs",
      "inputs": []
    },
    {
      "type": "error",
      "name": "EmptySource",
      "inputs": []
    },
    {
      "type": "error",
      "name": "ExecutionPeriodNotStarted",
      "inputs": []
    },
    {
      "type": "error",
      "name": "InsufficientTokens",
      "inputs": []
    },
    {
      "type": "error",
      "name": "NoInlineSecrets",
      "inputs": []
    },
    {
      "type": "error",
      "name": "OnlyCreator",
      "inputs": []
    },
    {
      "type": "error",
      "name": "OnlyRouterCanFulfill",
      "inputs": []
    },
    {
      "type": "error",
      "name": "ProposalAlreadyExecuted",
      "inputs": []
    },
    {
      "type": "error",
      "name": "SubmissionPeriodNotOver",
      "inputs": []
    },
    {
      "type": "error",
      "name": "TransferFailed",
      "inputs": []
    },
    {
      "type": "error",
      "name": "UnexpectedRequestID",
      "inputs": [
        {
          "name": "requestId",
          "type": "bytes32",
          "internalType": "bytes32"
        }
      ]
    },
    {
      "type": "error",
      "name": "VotingPeriodNotStarted",
      "inputs": []
    },
    {
      "type": "error",
      "name": "VotingPeriodOver",
      "inputs": []
    }
  ],
  "bytecode": {
    "object": "0x60a060405234801561001057600080fd5b5060405161258738038061258783398101604081905261002f9161019b565b73b83e47c2bc239b3bf370bc41e1459a34b41238d0608052600480546001600160a01b038581166001600160a01b0319928316179092556005805492851692909116919091179055600361008388826102df565b50600661009087826102df565b50600a80546001600160a01b0390921661010002610100600160a81b031990921691909117905550506008919091556009555061039d9050565b634e487b7160e01b600052604160045260246000fd5b600082601f8301126100f157600080fd5b81516001600160401b0381111561010a5761010a6100ca565b604051601f8201601f19908116603f011681016001600160401b0381118282101715610138576101386100ca565b60405281815283820160200185101561015057600080fd5b60005b8281101561016f57602081860181015183830182015201610153565b506000918101602001919091529392505050565b6001600160a01b038116811461019857600080fd5b50565b600080600080600080600060e0888a0312156101b657600080fd5b87516001600160401b038111156101cc57600080fd5b6101d88a828b016100e0565b60208a015190985090506001600160401b038111156101f657600080fd5b6102028a828b016100e0565b60408a015160608b015160808c01519299509097509550905061022481610183565b60a089015190935061023581610183565b60c089015190925061024681610183565b8091505092959891949750929550565b600181811c9082168061026a57607f821691505b60208210810361028a57634e487b7160e01b600052602260045260246000fd5b50919050565b601f8211156102da57806000526020600020601f840160051c810160208510156102b75750805b601f840160051c820191505b818110156102d757600081556001016102c3565b50505b505050565b81516001600160401b038111156102f8576102f86100ca565b61030c816103068454610256565b84610290565b6020601f82116001811461034057600083156103285750848201515b600019600385901b1c1916600184901b1784556102d7565b600084815260208120601f198516915b828110156103705787850151825560209485019460019092019101610350565b508482101561038e5786840151600019600387901b60f8161c191681555b50505050600190811b01905550565b6080516121c86103bf600039600081816102e301526111eb01526121c86000f3fe608060405234801561001057600080fd5b50600436106101375760003560e01c806361461954116100b8578063a5b39cfb1161007c578063a5b39cfb14610263578063b1e2174914610283578063d8bff5a51461028c578063ed01bf29146102af578063f1e6c623146102b8578063f96dae0a146102c057600080fd5b806361461954146102245780637284e4161461022c5780637bd41bd9146102345780639c1e326c1461023d5780639e394c061461025057600080fd5b8063352b70dc116100ff578063352b70dc146101ce5780633944ea3a146101e1578063498b77f3146101f65780634b0795a8146102095780635f74bbde1461021157600080fd5b806302d05d3f1461013c5780630ca761751461016c578063108cb0891461018157806317d628cd1461019a57806331a38c89146101b1575b600080fd5b60045461014f906001600160a01b031681565b6040516001600160a01b0390911681526020015b60405180910390f35b61017f61017a3660046118d0565b6102d8565b005b61018961035c565b604051610163959493929190611990565b6101a360095481565b604051908152602001610163565b600a546101be9060ff1681565b6040519015158152602001610163565b60055461014f906001600160a01b031681565b6101e9610427565b60405161016391906119d2565b61014f6102043660046119e5565b6104b5565b6101e96104df565b61017f61021f366004611a16565b6104ec565b61017f6106e5565b6101e9610933565b6101a360085481565b6101a361024b366004611a42565b610940565b61017f61025e366004611af7565b610bb4565b6101a3610271366004611b8c565b600d6020526000908152604090205481565b6101a360005481565b6101be61029a366004611b8c565b600b6020526000908152604090205460ff1681565b6101a360075481565b6101e9610c65565b600a5461014f9061010090046001600160a01b031681565b336001600160a01b037f000000000000000000000000000000000000000000000000000000000000000016146103215760405163c6829f8360e01b815260040160405180910390fd5b61032c838383610c72565b60405183907f85e1543bf2f84fe80c6badbce3648c8539ad1df4d2b3d822938ca0538be727e690600090a2505050565b600454600754600854600a5460038054606095600095869586958695946001600160a01b039094169360ff90911690859061039690611ba9565b80601f01602080910402602001604051908101604052809291908181526020018280546103c290611ba9565b801561040f5780601f106103e45761010080835404028352916020019161040f565b820191906000526020600020905b8154815290600101906020018083116103f257829003601f168201915b50505050509450945094509450945094509091929394565b6001805461043490611ba9565b80601f016020809104026020016040519081016040528092919081815260200182805461046090611ba9565b80156104ad5780601f10610482576101008083540402835291602001916104ad565b820191906000526020600020905b81548152906001019060200180831161049057829003601f168201915b505050505081565b600c81815481106104c557600080fd5b6000918252602090912001546001600160a01b0316905081565b6002805461043490611ba9565b336000908152600b602052604090205460ff161561051d57604051637c9a1cf960e01b815260040160405180910390fd5b600a546040516370a0823160e01b815233600482015260009161010090046001600160a01b0316906370a0823190602401602060405180830381865afa15801561056b573d6000803e3d6000fd5b505050506040513d601f19601f8201168201806040525081019061058f9190611be3565b60055460405163317d934f60e01b81526001600160a01b0386811660048301526024820186905292935091169063317d934f90604401600060405180830381600087803b1580156105df57600080fd5b505af11580156105f3573d6000803e3d6000fd5b5050336000818152600d60209081526040808320889055600b8252808320805460ff19166001908117909155600c805491820181559093527fdf6966c971051c3d54ec59162606531493a51404a002842f56009d7e5cf4a8c790920180546001600160a01b0319168417905581519283526001600160a01b0388169083015281018490527f174ba19ba3c8bb5c679c87e51db79fff7c3f04bb84c1fd55b7dacb470b674aa69250606001905060405180910390a160408051338152602081018390527fb539ca1e5c8d398ddf1c41c30166f33404941683be4683319b57669a93dad4ef910160405180910390a1505050565b6004546001600160a01b03163314610710576040516308f78f9960e31b815260040160405180910390fd5b600a5460ff1615610734576040516351618d5360e01b815260040160405180910390fd5b6005546040805163087201cf60e31b815290516000926001600160a01b0316916343900e7891600480830192869291908290030181865afa15801561077d573d6000803e3d6000fd5b505050506040513d6000823e601f3d908101601f191682016040526107a59190810190611c69565b9050600080805b835181101561082357828482815181106107c8576107c8611dbc565b602002602001015160800151111561081b578381815181106107ec576107ec611dbc565b602002602001015160800151925083818151811061080c5761080c611dbc565b60200260200101516000015191505b6001016107ac565b5060055460405163a678b65b60e01b81526001600160a01b0383811660048301529091169063a678b65b90602401600060405180830381600087803b15801561086b57600080fd5b505af115801561087f573d6000803e3d6000fd5b5050505060005b600c54811015610920576000600c82815481106108a5576108a5611dbc565b60009182526020808320909101546001600160a01b0316808352600d909152604090912054909150801561091657604080516001600160a01b0384168152602081018390527f9845e367b683334e5c0b12d7b81721ac518e649376fa65e3d68324e8f34f2679910160405180910390a15b5050600101610886565b5050600a805460ff191660011790555050565b6003805461043490611ba9565b6004546000906001600160a01b0316331461096e576040516308f78f9960e31b815260040160405180910390fd5b60006001805461097d90611ba9565b9050111561099e5760405163385b098560e21b815260040160405180910390fd5b6005546040805163087201cf60e31b815290516000926001600160a01b0316916343900e7891600480830192869291908290030181865afa1580156109e7573d6000803e3d6000fd5b505050506040513d6000823e601f3d908101601f19168201604052610a0f9190810190611c69565b9050600081516002610a219190611de8565b6001600160401b03811115610a3857610a386117dd565b604051908082528060200260200182016040528015610a6b57816020015b6060815260200190600190039081610a565790505b509050610a79600854610cf6565b81600081518110610a8c57610a8c611dbc565b602002602001018190525060068054610aa490611ba9565b80601f0160208091040260200160405190810160405280929190818152602001828054610ad090611ba9565b8015610b1d5780601f10610af257610100808354040283529160200191610b1d565b820191906000526020600020905b815481529060010190602001808311610b0057829003601f168201915b505050505081600181518110610b3557610b35611dbc565b602002602001018190525060005b8251811015610b9b57828181518110610b5e57610b5e611dbc565b60200260200101516040015182826002610b789190611de8565b81518110610b8857610b88611dbc565b6020908102919091010152600101610b43565b50610ba98782888888610d88565b979650505050505050565b6004546001600160a01b03163314610bdf576040516308f78f9960e31b815260040160405180910390fd5b80600081518110610bf257610bf2611dbc565b6020908102919091010151600755600554604051634f1ca60360e11b81526001600160a01b0390911690639e394c0690610c30908490600401611dfb565b600060405180830381600087803b158015610c4a57600080fd5b505af1158015610c5e573d6000803e3d6000fd5b5050505050565b6006805461043490611ba9565b8260005414610c9b5760405163d068bf5b60e01b81526004810184905260240160405180910390fd5b6001610ca78382611e85565b506002610cb48282611e85565b50827f7873807bf6ddc50401cd3d29bbe0decee23fd4d68d273f4b5eb83cded4d2f17260016002604051610ce9929190611fc6565b60405180910390a2505050565b60606000610d0383610e0a565b60010190506000816001600160401b03811115610d2257610d226117dd565b6040519080825280601f01601f191660200182016040528015610d4c576020820181803683370190505b5090508181016020015b600019016f181899199a1a9b1b9c1cb0b131b232b360811b600a86061a8153600a8504945084610d5657509392505050565b6000610dcb6040805160e0810190915280600081526020016000815260200160008152602001606081526020016060815260200160608152602001606081525090565b610dd58188610ee3565b855115610de657610de68187610ef4565b610dfa610df282610f1e565b8686866111e6565b6000819055979650505050505050565b60008072184f03e93ff9f4daa797ed6e38ed64bf6a1f0160401b8310610e495772184f03e93ff9f4daa797ed6e38ed64bf6a1f0160401b830492506040015b6d04ee2d6d415b85acef81000000008310610e75576d04ee2d6d415b85acef8100000000830492506020015b662386f26fc100008310610e9357662386f26fc10000830492506010015b6305f5e1008310610eab576305f5e100830492506008015b6127108310610ebf57612710830492506004015b60648310610ed1576064830492506002015b600a8310610edd576001015b92915050565b610ef082600080846112b8565b5050565b8051600003610f165760405163fe936cb760e01b815260040160405180910390fd5b60a090910152565b60606000610f2d610100611336565b9050610f666040518060400160405280600c81526020016b31b7b232a637b1b0ba34b7b760a11b8152508261135790919063ffffffff16565b8251610f84906002811115610f7d57610f7d611ff4565b8290611375565b6040805180820190915260088152676c616e677561676560c01b6020820152610fae908290611357565b6040830151610fc5908015610f7d57610f7d611ff4565b604080518082019091526006815265736f7572636560d01b6020820152610fed908290611357565b6060830151610ffd908290611357565b60a08301515115611089576040805180820190915260048152636172677360e01b602082015261102e908290611357565b611037816113ae565b60005b8360a001515181101561107f576110778460a00151828151811061106057611060611dbc565b60200260200101518361135790919063ffffffff16565b60010161103a565b50611089816113d2565b6080830151511561114d576000836020015160028111156110ac576110ac611ff4565b036110ca5760405163a80d31f760e01b815260040160405180910390fd5b60408051808201909152600f81526e39b2b1b932ba39a637b1b0ba34b7b760891b60208201526110fb908290611357565b61111483602001516002811115610f7d57610f7d611ff4565b6040805180820190915260078152667365637265747360c81b602082015261113d908290611357565b608083015161114d9082906113f0565b60c083015151156111de5760408051808201909152600981526862797465734172677360b81b6020820152611183908290611357565b61118c816113ae565b60005b8360c00151518110156111d4576111cc8460c0015182815181106111b5576111b5611dbc565b6020026020010151836113f090919063ffffffff16565b60010161118f565b506111de816113d2565b515192915050565b6000807f00000000000000000000000000000000000000000000000000000000000000006001600160a01b031663461d27628688600188886040518663ffffffff1660e01b815260040161123e95949392919061200a565b6020604051808303816000875af115801561125d573d6000803e3d6000fd5b505050506040513d601f19601f820116820180604052508101906112819190611be3565b60405190915081907f1131472297a800fee664d1d89cfa8f7676ff07189ecc53f80bbb5f4969099db890600090a295945050505050565b80516000036112da576040516322ce3edd60e01b815260040160405180910390fd5b838360028111156112ed576112ed611ff4565b9081600281111561130057611300611ff4565b9052506040840182801561131657611316611ff4565b9081801561132657611326611ff4565b9052506060909301929092525050565b61133e6117a8565b805161134a90836113fd565b5060006020820152919050565b6113648260038351611474565b81516113709082611593565b505050565b81516113829060c26115bb565b50610ef0828260405160200161139a91815260200190565b6040516020818303038152906040526113f0565b6113b9816004611624565b6001816020018181516113cc9190611de8565b90525050565b6113dd816007611624565b6001816020018181516113cc9190612053565b6113648260028351611474565b60408051808201909152606081526000602082015261141d602083612066565b156114455761142d602083612066565b611438906020612053565b6114429083611de8565b91505b60208084018390526040518085526000815290818401018181101561146957600080fd5b604052509192915050565b6017816001600160401b0316116114a057825161149a9060e0600585901b1683176115bb565b50505050565b60ff816001600160401b0316116114e05782516114c8906018611fe0600586901b16176115bb565b50825161149a906001600160401b038316600161163b565b61ffff816001600160401b031611611521578251611509906019611fe0600586901b16176115bb565b50825161149a906001600160401b038316600261163b565b63ffffffff816001600160401b03161161156457825161154c90601a611fe0600586901b16176115bb565b50825161149a906001600160401b038316600461163b565b825161157b90601b611fe0600586901b16176115bb565b50825161149a906001600160401b038316600861163b565b6040805180820190915260608152600060208201526115b4838384516116c0565b9392505050565b60408051808201909152606081526000602082015282515160006115e0826001611de8565b90508460200151821061160157611601856115fc836002612088565b611791565b845160208382010185815350805182111561161a578181525b5093949350505050565b815161137090601f611fe0600585901b16176115bb565b604080518082019091526060815260006020820152835151600061165f8285611de8565b9050856020015181111561167c5761167c866115fc836002612088565b6000600161168c86610100612186565b6116969190612053565b905086518281018783198251161781525080518311156116b4578281525b50959695505050505050565b60408051808201909152606081526000602082015282518211156116e357600080fd5b83515160006116f28483611de8565b9050856020015181111561170f5761170f866115fc836002612088565b855180518382016020019160009180851115611729578482525b505050602086015b602086106117695780518252611748602083611de8565b9150611755602082611de8565b9050611762602087612053565b9550611731565b51815160001960208890036101000a0190811690199190911617905250849150509392505050565b815161179d83836113fd565b5061149a8382611593565b60405180604001604052806117d0604051806040016040528060608152602001600081525090565b8152602001600081525090565b634e487b7160e01b600052604160045260246000fd5b60405160c081016001600160401b0381118282101715611815576118156117dd565b60405290565b604051601f8201601f191681016001600160401b0381118282101715611843576118436117dd565b604052919050565b60006001600160401b03821115611864576118646117dd565b50601f01601f191660200190565b60006118856118808461184b565b61181b565b905082815283838301111561189957600080fd5b828260208301376000602084830101529392505050565b600082601f8301126118c157600080fd5b6115b483833560208501611872565b6000806000606084860312156118e557600080fd5b8335925060208401356001600160401b0381111561190257600080fd5b61190e868287016118b0565b92505060408401356001600160401b0381111561192a57600080fd5b611936868287016118b0565b9150509250925092565b60005b8381101561195b578181015183820152602001611943565b50506000910152565b6000815180845261197c816020860160208601611940565b601f01601f19169290920160200192915050565b60a0815260006119a360a0830188611964565b6001600160a01b0396909616602083015250604081019390935260608301919091521515608090910152919050565b6020815260006115b46020830184611964565b6000602082840312156119f757600080fd5b5035919050565b6001600160a01b0381168114611a1357600080fd5b50565b60008060408385031215611a2957600080fd5b8235611a34816119fe565b946020939093013593505050565b60008060008060808587031215611a5857600080fd5b84356001600160401b03811115611a6e57600080fd5b8501601f81018713611a7f57600080fd5b611a8e87823560208401611872565b94505060208501356001600160401b0381168114611aab57600080fd5b9250604085013563ffffffff81168114611ac457600080fd5b9396929550929360600135925050565b60006001600160401b03821115611aed57611aed6117dd565b5060051b60200190565b600060208284031215611b0957600080fd5b81356001600160401b03811115611b1f57600080fd5b8201601f81018413611b3057600080fd5b8035611b3e61188082611ad4565b8082825260208201915060208360051b850101925086831115611b6057600080fd5b6020840193505b82841015611b82578335825260209384019390910190611b67565b9695505050505050565b600060208284031215611b9e57600080fd5b81356115b4816119fe565b600181811c90821680611bbd57607f821691505b602082108103611bdd57634e487b7160e01b600052602260045260246000fd5b50919050565b600060208284031215611bf557600080fd5b5051919050565b8051611c07816119fe565b919050565b600082601f830112611c1d57600080fd5b8151611c2b6118808261184b565b818152846020838601011115611c4057600080fd5b611c51826020830160208701611940565b949350505050565b80518015158114611c0757600080fd5b600060208284031215611c7b57600080fd5b81516001600160401b03811115611c9157600080fd5b8201601f81018413611ca257600080fd5b8051611cb061188082611ad4565b8082825260208201915060208360051b850101925086831115611cd257600080fd5b602084015b83811015611db15780516001600160401b03811115611cf557600080fd5b850160c0818a03601f19011215611d0b57600080fd5b611d136117f3565b611d1f60208301611bfc565b815260408201516001600160401b03811115611d3a57600080fd5b611d498b602083860101611c0c565b60208301525060608201516001600160401b03811115611d6857600080fd5b611d778b602083860101611c0c565b604083015250608082810151606083015260a083015190820152611d9d60c08301611c59565b60a082015284525060209283019201611cd7565b509695505050505050565b634e487b7160e01b600052603260045260246000fd5b634e487b7160e01b600052601160045260246000fd5b80820180821115610edd57610edd611dd2565b602080825282518282018190526000918401906040840190835b81811015611e33578351835260209384019390920191600101611e15565b509095945050505050565b601f82111561137057806000526020600020601f840160051c81016020851015611e655750805b601f840160051c820191505b81811015610c5e5760008155600101611e71565b81516001600160401b03811115611e9e57611e9e6117dd565b611eb281611eac8454611ba9565b84611e3e565b6020601f821160018114611ee65760008315611ece5750848201515b600019600385901b1c1916600184901b178455610c5e565b600084815260208120601f198516915b82811015611f165787850151825560209485019460019092019101611ef6565b5084821015611f345786840151600019600387901b60f8161c191681555b50505050600190811b01905550565b60008154611f5081611ba9565b808552600182168015611f6a5760018114611f8657611fbd565b60ff1983166020870152602082151560051b8701019350611fbd565b84600052602060002060005b83811015611fb45781546020828a010152600182019150602081019050611f92565b87016020019450505b50505092915050565b604081526000611fd96040830185611f43565b8281036020840152611feb8185611f43565b95945050505050565b634e487b7160e01b600052602160045260246000fd5b6001600160401b038616815260a06020820152600061202c60a0830187611964565b61ffff9590951660408301525063ffffffff92909216606083015260809091015292915050565b81810381811115610edd57610edd611dd2565b60008261208357634e487b7160e01b600052601260045260246000fd5b500690565b8082028115828204841417610edd57610edd611dd2565b6001815b60018411156120da578085048111156120be576120be611dd2565b60018416156120cc57908102905b60019390931c9280026120a3565b935093915050565b6000826120f157506001610edd565b816120fe57506000610edd565b8160018114612114576002811461211e5761213a565b6001915050610edd565b60ff84111561212f5761212f611dd2565b50506001821b610edd565b5060208310610133831016604e8410600b841016171561215d575081810a610edd565b61216a600019848461209f565b806000190482111561217e5761217e611dd2565b029392505050565b60006115b483836120e256fea26469706673582212208219a714fbe56c42d1cc85b2490019be63ee5136259745b65225f162ef989ffc64736f6c634300081c0033",
    "linkReferences": {}
  },
  "methodIdentifiers": {
    "applicationSubmissionAddress()": "352b70dc",
    "budget()": "ed01bf29",
    "creator()": "02d05d3f",
    "description()": "7284e416",
    "encrypted_budget()": "f1e6c623",
    "execute()": "61461954",
    "executed()": "31a38c89",
    "getProposalDetails()": "108cb089",
    "governanceToken()": "f96dae0a",
    "handleOracleFulfillment(bytes32,bytes,bytes)": "0ca76175",
    "s_lastError()": "4b0795a8",
    "s_lastRequestId()": "b1e21749",
    "s_lastResponse()": "3944ea3a",
    "setBudgets(uint256[])": "9e394c06",
    "stakedTokens(address)": "a5b39cfb",
    "startRevealOfBudgets(string,uint64,uint32,bytes32)": "9c1e326c",
    "submission_phase_end_timestamp()": "7bd41bd9",
    "vote(address,uint256)": "5f74bbde",
    "voteAddresses(uint256)": "498b77f3",
    "votes(address)": "d8bff5a5",
    "voting_phase_end_timestamp()": "17d628cd"
  },
  "id": 18
}